:0800000014C030C0FDCFFCCF9D
:10000800FBCFFACFF9CFF8CFF7CFF6CFF5CFF4CFB4
:10001800F3CFF2CFF1CFF0CFEFCFEECF20C0ECCFC0
:10002800EBCFF894EE27ECBBF1E0FBBFEBBFE5BFED
:10003800F8E1F1BDE1BD8DE0A2E0BB27ED938A9523
:10004800E9F780E092E0A0E6ED930197E9F7EFE5A4
:10005800EDBFE2E0EEBFC0EED0E020C018950A92F6
:100068001A92FA926A937A938A939A93AA93BA9372
:10007800EA93FA93EFB7EA93E0E044D0EFEF42D087
:10008800E991EFBFF991E991B991A9919991899174
:1000980079916991F990199009901895EFEFEABB59
:1000A800E0E0EBBBE7BBE8BBE4BBE5BBE1BBE2BB25
:1000B800E3BFE2BFECBFEFBDEEBDEDBDECBDE7BDFC
:1000C800E6BDEBBDEABDE9BDE8BDE2BDE5BDE4BD09
:1000D800E3BDE9BFEBB7E066EBBFE0E0E5BFE4BF37
:1000E800E0E6EABFE0E0EAB9E0E8E8B9E0E0E0BF6E
:1000F800E6B9EDB9E6BF7894EFE004D0E0EF02D0BE
:10010800FBCFFFCFEBBBA8EEB3E000C0109639F0F1
:1001180084EC99E00197F1F7A8951197C9F708952C
:00000001FF
